{
  "_format": "hh3-artifact-1",
  "contractName": "JobMarketplace",
  "sourceName": "contracts/JobMarketplace.sol",
  "abi": [
    {
      "inputs": [
        {
          "internalType": "address",
          "name": "token_",
          "type": "address"
        }
      ],
      "stateMutability": "nonpayable",
      "type": "constructor"
    },
    {
      "inputs": [],
      "name": "EvaluatorRequired",
      "type": "error"
    },
    {
      "inputs": [],
      "name": "InvalidJob",
      "type": "error"
    },
    {
      "inputs": [],
      "name": "InvalidState",
      "type": "error"
    },
    {
      "inputs": [],
      "name": "JobNotExpired",
      "type": "error"
    },
    {
      "inputs": [],
      "name": "NotClient",
      "type": "error"
    },
    {
      "inputs": [],
      "name": "NotEvaluator",
      "type": "error"
    },
    {
      "inputs": [],
      "name": "NotProvider",
      "type": "error"
    },
    {
      "inputs": [],
      "name": "ProviderAlreadySet",
      "type": "error"
    },
    {
      "inputs": [],
      "name": "ProviderRequired",
      "type": "error"
    },
    {
      "inputs": [],
      "name": "ReentrancyGuardReentrantCall",
      "type": "error"
    },
    {
      "inputs": [],
      "name": "ZeroBudget",
      "type": "error"
    },
    {
      "anonymous": false,
      "inputs": [
        {
          "indexed": true,
          "internalType": "uint256",
          "name": "jobId",
          "type": "uint256"
        },
        {
          "indexed": true,
          "internalType": "address",
          "name": "provider",
          "type": "address"
        },
        {
          "indexed": false,
          "internalType": "bytes32",
          "name": "reason",
          "type": "bytes32"
        }
      ],
      "name": "Completed",
      "type": "event"
    },
    {
      "anonymous": false,
      "inputs": [
        {
          "indexed": true,
          "internalType": "uint256",
          "name": "jobId",
          "type": "uint256"
        },
        {
          "indexed": true,
          "internalType": "address",
          "name": "client",
          "type": "address"
        },
        {
          "indexed": true,
          "internalType": "address",
          "name": "evaluator",
          "type": "address"
        },
        {
          "indexed": false,
          "internalType": "address",
          "name": "provider",
          "type": "address"
        },
        {
          "indexed": false,
          "internalType": "uint256",
          "name": "budget",
          "type": "uint256"
        },
        {
          "indexed": false,
          "internalType": "uint64",
          "name": "expiresAt",
          "type": "uint64"
        },
        {
          "indexed": false,
          "internalType": "string",
          "name": "description",
          "type": "string"
        }
      ],
      "name": "JobCreated",
      "type": "event"
    },
    {
      "anonymous": false,
      "inputs": [
        {
          "indexed": true,
          "internalType": "uint256",
          "name": "jobId",
          "type": "uint256"
        },
        {
          "indexed": false,
          "internalType": "uint256",
          "name": "amount",
          "type": "uint256"
        }
      ],
      "name": "JobFunded",
      "type": "event"
    },
    {
      "anonymous": false,
      "inputs": [
        {
          "indexed": true,
          "internalType": "uint256",
          "name": "jobId",
          "type": "uint256"
        },
        {
          "indexed": true,
          "internalType": "address",
          "name": "provider",
          "type": "address"
        }
      ],
      "name": "ProviderSet",
      "type": "event"
    },
    {
      "anonymous": false,
      "inputs": [
        {
          "indexed": true,
          "internalType": "uint256",
          "name": "jobId",
          "type": "uint256"
        },
        {
          "indexed": true,
          "internalType": "address",
          "name": "client",
          "type": "address"
        },
        {
          "indexed": false,
          "internalType": "uint256",
          "name": "amount",
          "type": "uint256"
        }
      ],
      "name": "Refunded",
      "type": "event"
    },
    {
      "anonymous": false,
      "inputs": [
        {
          "indexed": true,
          "internalType": "uint256",
          "name": "jobId",
          "type": "uint256"
        },
        {
          "indexed": false,
          "internalType": "bytes32",
          "name": "reason",
          "type": "bytes32"
        }
      ],
      "name": "Rejected",
      "type": "event"
    },
    {
      "anonymous": false,
      "inputs": [
        {
          "indexed": true,
          "internalType": "uint256",
          "name": "jobId",
          "type": "uint256"
        },
        {
          "indexed": false,
          "internalType": "bytes32",
          "name": "deliverableRef",
          "type": "bytes32"
        }
      ],
      "name": "Submitted",
      "type": "event"
    },
    {
      "inputs": [
        {
          "internalType": "uint256",
          "name": "jobId",
          "type": "uint256"
        }
      ],
      "name": "claimRefund",
      "outputs": [],
      "stateMutability": "nonpayable",
      "type": "function"
    },
    {
      "inputs": [
        {
          "internalType": "uint256",
          "name": "jobId",
          "type": "uint256"
        },
        {
          "internalType": "bytes32",
          "name": "reason",
          "type": "bytes32"
        }
      ],
      "name": "complete",
      "outputs": [],
      "stateMutability": "nonpayable",
      "type": "function"
    },
    {
      "inputs": [
        {
          "internalType": "string",
          "name": "description",
          "type": "string"
        },
        {
          "internalType": "uint256",
          "name": "budget",
          "type": "uint256"
        },
        {
          "internalType": "address",
          "name": "evaluator",
          "type": "address"
        },
        {
          "internalType": "address",
          "name": "provider",
          "type": "address"
        },
        {
          "internalType": "uint64",
          "name": "expiresAt",
          "type": "uint64"
        }
      ],
      "name": "createJob",
      "outputs": [
        {
          "internalType": "uint256",
          "name": "",
          "type": "uint256"
        }
      ],
      "stateMutability": "nonpayable",
      "type": "function"
    },
    {
      "inputs": [
        {
          "internalType": "uint256",
          "name": "jobId",
          "type": "uint256"
        }
      ],
      "name": "fund",
      "outputs": [],
      "stateMutability": "nonpayable",
      "type": "function"
    },
    {
      "inputs": [],
      "name": "jobCount",
      "outputs": [
        {
          "internalType": "uint256",
          "name": "",
          "type": "uint256"
        }
      ],
      "stateMutability": "view",
      "type": "function"
    },
    {
      "inputs": [
        {
          "internalType": "uint256",
          "name": "",
          "type": "uint256"
        }
      ],
      "name": "jobs",
      "outputs": [
        {
          "internalType": "address",
          "name": "client",
          "type": "address"
        },
        {
          "internalType": "address",
          "name": "evaluator",
          "type": "address"
        },
        {
          "internalType": "address",
          "name": "provider",
          "type": "address"
        },
        {
          "internalType": "uint256",
          "name": "budget",
          "type": "uint256"
        },
        {
          "internalType": "uint64",
          "name": "expiresAt",
          "type": "uint64"
        },
        {
          "internalType": "enum JobMarketplace.Status",
          "name": "status",
          "type": "uint8"
        },
        {
          "internalType": "bytes32",
          "name": "deliverableRef",
          "type": "bytes32"
        },
        {
          "internalType": "string",
          "name": "description",
          "type": "string"
        }
      ],
      "stateMutability": "view",
      "type": "function"
    },
    {
      "inputs": [
        {
          "internalType": "uint256",
          "name": "jobId",
          "type": "uint256"
        },
        {
          "internalType": "bytes32",
          "name": "reason",
          "type": "bytes32"
        }
      ],
      "name": "reject",
      "outputs": [],
      "stateMutability": "nonpayable",
      "type": "function"
    },
    {
      "inputs": [
        {
          "internalType": "uint256",
          "name": "jobId",
          "type": "uint256"
        },
        {
          "internalType": "address",
          "name": "provider",
          "type": "address"
        }
      ],
      "name": "setProvider",
      "outputs": [],
      "stateMutability": "nonpayable",
      "type": "function"
    },
    {
      "inputs": [
        {
          "internalType": "uint256",
          "name": "jobId",
          "type": "uint256"
        },
        {
          "internalType": "bytes32",
          "name": "deliverableRef",
          "type": "bytes32"
        }
      ],
      "name": "submit",
      "outputs": [],
      "stateMutability": "nonpayable",
      "type": "function"
    },
    {
      "inputs": [],
      "name": "token",
      "outputs": [
        {
          "internalType": "contract IERC20",
          "name": "",
          "type": "address"
        }
      ],
      "stateMutability": "view",
      "type": "function"
    }
  ],
  "bytecode": "0x60a060405234801561000f575f80fd5b506040516113ec3803806113ec83398101604081905261002e9161008a565b60017f9b779b17422d0df92223018b32b4d1fa46e071723d6817e2486d003becc55f00556001600160a01b0381166100795760405163038e47a360e51b815260040160405180910390fd5b6001600160a01b03166080526100b7565b5f6020828403121561009a575f80fd5b81516001600160a01b03811681146100b0575f80fd5b9392505050565b6080516113016100eb5f395f8181610172015281816106a50152818161090401528181610abf0152610c5901526113015ff3fe608060405234801561000f575f80fd5b506004361061009b575f3560e01c80636be1320b116100635780636be1320b14610121578063ca1d209d14610134578063cd56b1b614610147578063d0fae5911461015a578063fc0c546a1461016d575f80fd5b8063180aedf31461009f5780632ecea788146100cf57806349ce0cbb146100e45780634c5d8a0f146101055780635b7baf641461010e575b5f80fd5b6100b26100ad366004610ea5565b6101ac565b6040516100c6989796959493929190610ed0565b60405180910390f35b6100e26100dd366004610f8c565b6102a7565b005b6100f76100f2366004610fc7565b61037e565b6040519081526020016100c6565b6100f760015481565b6100e261011c366004610ea5565b6105af565b6100e261012f366004610f8c565b61075a565b6100e2610142366004610ea5565b6109d3565b6100e2610155366004610f8c565b610b87565b6100e2610168366004611073565b610d21565b6101947f000000000000000000000000000000000000000000000000000000000000000081565b6040516001600160a01b0390911681526020016100c6565b5f81815481106101ba575f80fd5b5f91825260209091206007909102018054600182015460028301546003840154600485015460058601546006870180546001600160a01b039788169950958716979690941695929467ffffffffffffffff831694600160401b90930460ff16939192906102269061109d565b80601f01602080910402602001604051908101604052809291908181526020018280546102529061109d565b801561029d5780601f106102745761010080835404028352916020019161029d565b820191905f5260205f20905b81548152906001019060200180831161028057829003601f168201915b5050505050905088565b5f6102b183610e12565b60028101549091506001600160a01b031633146102e157604051631a40715960e11b815260040160405180910390fd5b60016004820154600160401b900460ff16600581111561030357610303610ebc565b146103215760405163baf3f0f760e01b815260040160405180910390fd5b6004810180546802000000000000000060ff60401b199091161790556005810182905560405182815283907f465ddfeee4b3d0fb72ba16ca1e8d4ecf86373b44e51658af98043162de372b4c9060200160405180910390a2505050565b5f6001600160a01b0384166103a65760405163fdffff7b60e01b815260040160405180910390fd5b845f036103c95760405160016268479f60e01b0319815260040160405180910390fd5b5f805460408051610100810182523381526001600160a01b0388811660208301528716918101919091526060810188905267ffffffffffffffff8516608082015290919060a081018281526020015f801b81526020018a8a8080601f0160208091040260200160405190810160405280939291908181526020018383808284375f920182905250939094525050835460018082018655948252602091829020845160079092020180546001600160a01b03199081166001600160a01b03938416178255928501519581018054841696831696909617909555604084015160028601805490931691161790555060608101516003830155608081015160048301805467ffffffffffffffff19811667ffffffffffffffff909316928317825560a08401519394939268ffffffffffffffffff1990911617600160401b83600581111561051657610516610ebc565b021790555060c0820151600582015560e082015160068201906105399082611135565b50506001805491505f61054b836111f5565b9190505550846001600160a01b0316336001600160a01b0316827fc38910890bf4f229dc0ad18bfb4eb3799f8c88de6969f843c556a3e7ab5569b3878a888e8e60405161059c959493929190611219565b60405180910390a4979650505050505050565b5f6105b982610e12565b600481015490915067ffffffffffffffff1642116105ea57604051630d9fd01160e41b815260040160405180910390fd5b60016004820154600160401b900460ff16600581111561060c5761060c610ebc565b1415801561063a575060026004820154600160401b900460ff16600581111561063757610637610ebc565b14155b156106585760405163baf3f0f760e01b815260040160405180910390fd5b80546003820154600480840180546805000000000000000060ff60401b1990911617905560405163a9059cbb60e01b81526001600160a01b039384169181018290526024810183905290927f0000000000000000000000000000000000000000000000000000000000000000169063a9059cbb906044016020604051808303815f875af11580156106eb573d5f803e3d5ffd5b505050506040513d601f19601f8201168201806040525081019061070f9190611271565b50816001600160a01b0316847f7ca5472b7ea78c2c0141c5a12ee6d170cf4ce8ed06be3d22c8252ddfc7a6a2c48360405161074c91815260200190565b60405180910390a350505050565b610762610e59565b5f61076c83610e12565b6004810154909150600160401b900460ff165f81600581111561079157610791610ebc565b036107c55781546001600160a01b031633146107c057604051630836f21d60e21b815260040160405180910390fd5b610841565b60018160058111156107d9576107d9610ebc565b14806107f6575060028160058111156107f4576107f4610ebc565b145b156108285760018201546001600160a01b031633146107c057604051633246566b60e21b815260040160405180910390fd5b60405163baf3f0f760e01b815260040160405180910390fd5b815460038301546001600160a01b03909116905f600184600581111561086957610869610ebc565b14806108865750600284600581111561088457610884610ebc565b145b60048601805460ff60401b19166804000000000000000017905560405187815290915087907fa15a09efe7461421aa7695d1e5da4b2b6c5e3289d2c91ca213e4f1f0d2561fbf9060200160405180910390a280156109b45760405163a9059cbb60e01b81526001600160a01b038481166004830152602482018490527f0000000000000000000000000000000000000000000000000000000000000000169063a9059cbb906044016020604051808303815f875af115801561094a573d5f803e3d5ffd5b505050506040513d601f19601f8201168201806040525081019061096e9190611271565b50826001600160a01b0316877f7ca5472b7ea78c2c0141c5a12ee6d170cf4ce8ed06be3d22c8252ddfc7a6a2c4846040516109ab91815260200190565b60405180910390a35b50505050506109cf60015f805160206112ac83398151915255565b5050565b6109db610e59565b5f6109e582610e12565b80549091506001600160a01b03163314610a1257604051630836f21d60e21b815260040160405180910390fd5b5f6004820154600160401b900460ff166005811115610a3357610a33610ebc565b14610a515760405163baf3f0f760e01b815260040160405180910390fd5b60028101546001600160a01b0316610a7c5760405163369b492760e21b815260040160405180910390fd5b60038101546004820180546001919060ff60401b1916600160401b8302179055506040516323b872dd60e01b8152336004820152306024820152604481018290527f00000000000000000000000000000000000000000000000000000000000000006001600160a01b0316906323b872dd906064016020604051808303815f875af1158015610b0d573d5f803e3d5ffd5b505050506040513d601f19601f82011682018060405250810190610b319190611271565b50827f9d25c5cf940eed311c45e5a0b4c7c8790a356d3c356453b76bb7e232db3f384a82604051610b6491815260200190565b60405180910390a25050610b8460015f805160206112ac83398151915255565b50565b610b8f610e59565b5f610b9983610e12565b60018101549091506001600160a01b03163314610bc957604051633246566b60e21b815260040160405180910390fd5b60026004820154600160401b900460ff166005811115610beb57610beb610ebc565b14610c095760405163baf3f0f760e01b815260040160405180910390fd5b60028101546003820154600480840180546803000000000000000060ff60401b1990911617905560405163a9059cbb60e01b81526001600160a01b039384169181018290526024810183905290927f0000000000000000000000000000000000000000000000000000000000000000169063a9059cbb906044016020604051808303815f875af1158015610c9f573d5f803e3d5ffd5b505050506040513d601f19601f82011682018060405250810190610cc39190611271565b50816001600160a01b0316857fb296649e84d06e945420c10a10bd064deabeed23208fdd81c48c60705b5d579a86604051610d0091815260200190565b60405180910390a35050506109cf60015f805160206112ac83398151915255565b5f610d2b83610e12565b80549091506001600160a01b03163314610d5857604051630836f21d60e21b815260040160405180910390fd5b5f6004820154600160401b900460ff166005811115610d7957610d79610ebc565b14610d975760405163baf3f0f760e01b815260040160405180910390fd5b60028101546001600160a01b031615610dc35760405163d07727c560e01b815260040160405180910390fd5b6002810180546001600160a01b0319166001600160a01b03841690811790915560405184907f9a87df076ea1725aba8ba29d32517ce37c9597d88cbf16ec6707892cc330ab69905f90a3505050565b5f80548210610e345760405163038e47a360e51b815260040160405180910390fd5b5f8281548110610e4657610e46611297565b905f5260205f2090600702019050919050565b610e61610e74565b60025f805160206112ac83398151915255565b5f805160206112ac83398151915254600203610ea357604051633ee5aeb560e01b815260040160405180910390fd5b565b5f60208284031215610eb5575f80fd5b5035919050565b634e487b7160e01b5f52602160045260245ffd5b5f61010060018060a01b03808c1684526020818c166020860152818b16604086015289606086015267ffffffffffffffff8916608086015260068810610f2457634e487b7160e01b5f52602160045260245ffd5b8760a08601528660c08601528260e08601528551915081838601525f92505b81831015610f6257858301810151858401610120015291820191610f43565b5061012091505f82828601015281601f19601f830116850101925050509998505050505050505050565b5f8060408385031215610f9d575f80fd5b50508035926020909101359150565b80356001600160a01b0381168114610fc2575f80fd5b919050565b5f805f805f8060a08789031215610fdc575f80fd5b863567ffffffffffffffff80821115610ff3575f80fd5b818901915089601f830112611006575f80fd5b813581811115611014575f80fd5b8a6020828501011115611025575f80fd5b60208381019950909750890135955061104060408a01610fac565b945061104e60608a01610fac565b9350608089013591508082168214611064575f80fd5b50809150509295509295509295565b5f8060408385031215611084575f80fd5b8235915061109460208401610fac565b90509250929050565b600181811c908216806110b157607f821691505b6020821081036110cf57634e487b7160e01b5f52602260045260245ffd5b50919050565b634e487b7160e01b5f52604160045260245ffd5b601f82111561113057805f5260205f20601f840160051c8101602085101561110e5750805b601f840160051c820191505b8181101561112d575f815560010161111a565b50505b505050565b815167ffffffffffffffff81111561114f5761114f6110d5565b6111638161115d845461109d565b846110e9565b602080601f831160018114611196575f841561117f5750858301515b5f19600386901b1c1916600185901b1785556111ed565b5f85815260208120601f198616915b828110156111c4578886015182559484019460019091019084016111a5565b50858210156111e157878501515f19600388901b60f8161c191681555b505060018460011b0185555b505050505050565b5f6001820161121257634e487b7160e01b5f52601160045260245ffd5b5060010190565b6001600160a01b03861681526020810185905267ffffffffffffffff841660408201526080606082018190528101829052818360a08301375f81830160a090810191909152601f909201601f19160101949350505050565b5f60208284031215611281575f80fd5b81518015158114611290575f80fd5b9392505050565b634e487b7160e01b5f52603260045260245ffdfe9b779b17422d0df92223018b32b4d1fa46e071723d6817e2486d003becc55f00a2646970667358221220a10cf5b83fa9f59305cfd1072ada1721e43c5e489bea275c5e03d4a02c253bdd64736f6c63430008180033",
  "linkReferences": {},
  "deployedLinkReferences": {},
  "immutableReferences": {
    "350": [
      {
        "length": 32,
        "start": 370
      },
      {
        "length": 32,
        "start": 1701
      },
      {
        "length": 32,
        "start": 2308
      },
      {
        "length": 32,
        "start": 2751
      },
      {
        "length": 32,
        "start": 3161
      }
    ]
  },
  "inputSourceName": "project/contracts/JobMarketplace.sol",
  "buildInfoId": "solc-0_8_24-2b924e605cadd586ab61a63030db9f1d938b303d"
}